:020000040000FA
:04180000DAEF15F016
:08180800056ED8CF06F0E0CF19
:1018100007F00001E9CF0DF0EACF08F0E1CF09F0C1
:10182000E2CF0AF0D9CF0BF0DACF0CF0F3CF14F0FF
:10183000F4CF15F0FACF16F000C00FF001C010F091
:1018400002C011F003C012F004C013F09DAA2CEFE7
:101850000CF09EBA1FEF14F0A0AA32EF0CF0A1BA60
:10186000EAEF13F00FC000F010C001F011C002F059
:1018700012C003F013C004F00E8E0DC0E9FF08C0C3
:10188000EAFF09C0E1FF0AC0E2FF0BC0D9FF0CC0AC
:10189000DAFF14C0F3FF15C0F4FF16C0FAFF0550BD
:1018A00007C0E0FF06C0D8FF1000F76ABA0FF66E57
:1018B000180EF7220900F550120004030100000081
:1018C00000000000000000000000F76ADA0FF66E6A
:1018D000180EF7220900F550120004000100000064
:1018E00000000000000000000000F76AFA0FF66E2A
:1018F000180EF7220900F5501200400008004000C1
:1019000000000000000000000000000000000000D7
:1019100000000000000000000000F76A2A0FF66EC9
:10192000190EF7220900F550120040000000400097
:1019300000000000000000000000000000000000A7
:1019400000000000000000000000F76A5A0FF66E69
:10195000190EF7220900F550120009024300020196
:1019600000C0320904000001020201000524001039
:1019700001042402020524060001052401000107D8
:101980000581030800FA09040100020A00000007AB
:101990000502024000FA070582024000FA00F76AD9
:1019A000AE0FF66E190EF7220900F5501200020074
:1019B000F76AC00FF66E190EF7220900F5501200F3
:1019C0001201100102000040D804010000010102D0
:1019D0000001F76AE20FF66E190EF7220900F550C2
:1019E0001200040309040A03410055005200450097
:1019F0002803410075007200650042006F0061001D
:101A00007200640020005500730062002D00530036
:101A10006500720069006500F2CF0EF0F29EF76A71
:101A2000320FF66E1A0EF7220900F5500EBEF28E36
:101A300012000D0A41555245424F540D0A5F5F5F37
:101A40005F5F5F5F0D0A0D0A496E696369616E64CD
:101A50006F2E2E2E0D0A0000F2CF0EF0F29EF76AC6
:101A6000720FF66E1A0EF7220900F5500EBEF28EB6
:101A700012005B44656C617920333030206D735DFA
:101A80000D0A0000F2CF0EF0F29EF76A9E0FF66E7E
:101A90001A0EF7220900F5500EBEF28E12005B4FAF
:101AA0006B5D0D0A0000F2CF0EF0F29EF76AC00FD8
:101AB000F66E1A0EF7220900F5500EBEF28E1200D5
:101AC0002D4C65642056657264650D0A0000F2CFE6
:101AD0000EF0F29EF76AE80FF66E1A0EF722090072
:101AE000F5500EBEF28E12002D5553422043444352
:101AF0000D0A0000F2CF0EF0F29EF76A0E0FF66E9E
:101B00001B0EF7220900F5500EBEF28E12002D506A
:101B1000756C6C2075702773204F46460D0A0000C7
:101B2000F2CF0EF0F29EF76A3A0FF66E1B0EF72216
:101B30000900F5500EBEF28E12002D496E746572CA
:101B400072757063696F6E2053455249450D0A00E6
:101B5000F2CF0EF0F29EF76A6A0FF66E1B0EF722B6
:101B60000900F5500EBEF28E12002D496E7465729A
:101B700072757063696F6E657320676C6F62616CFC
:101B800065730D0A0000F2CF0EF0F29EF76AA00F07
:101B9000F66E1B0EF7220900F5500EBEF28E1200F3
:101BA000A14C69737461210D0A0D0A00F2CF0EF089
:101BB000F29EF76AC60FF66E1B0EF7220900F5506B
:101BC0000EBEF28E1200280C0106F2CF0EF0F29E2D
:101BD000F76AE40FF66E1B0EF7220900F5500EBEF1
:101BE000F28E120053697374656D61206F6B200073
:101BF000F2CF0EF0F29EF76A0A0FF66E1C0EF72275
:101C00000900F5500EBEF28E120020202020202068
:101C10002020202020202020202020202000F2CF63
:101C20000EF0F29EF76A380FF66E1C0EF7220900CE
:101C3000F5500EBEF28E120070756C736172204406
:101C400020006D9269946894F5EF13F06A6A6892C7
:101C5000FEEF13F02D6A2C6A250E2B6E800E2A6E75
:101C60002E6A2F6A080E306E806B7B93326A316A5F
:101C70007C6B7D917B81000C8D6B8D5101080AE39B
:101C8000036A8D51280FE96E000E0320EA6EEF6A99
:101C90008D2BF3D7DFDF1A6A010E1B6E196A000C59
:101CA000010E966F96510F080EE3700E9625016E89
:101CB0000F0E036ED8B0032A01C0E9FF03C0EAFF8C
:101CC000EF6A962BEFD71E6A1D6A000C400E0401C6
:101CD000016F050E036F026B880E006F046B050E1B
:101CE000076F400E066F0001000C6A6A686A9F0E5B
:101CF0006B6E390E696E6E6ABFDFD2DF160E706EC4
:101D000068A602D06896FCD76D98E0DF030E1F6EC0
:101D100004EF14F0698468986D820AEF14F0689CEF
:101D200010EF14F070A002D0D1DF7090689A16EF17
:101D300014F091C020F0000CFF0E206E000C8F6B91
:101D4000275235E08F513F0832E31C5005E0020A6C
:101D50000DE0010A15E01ED0036A2650F2CF91F083
:101D6000F29EF3DD91BFF28E906F14D0036A26507D
:101D7000F2CF91F0F29E2DDE91BFF28E906F0AD0DD
:101D8000036A2650F2CF91F0F29E12DE91BFF28EDE
:101D9000906F00D0262A27068F518F2B036A400FA1
:101DA000E96E050E0320EA6E90C0EFFFC9D72752F7
:101DB00004E18F51400801E0196A8FC091F0B9DF4A
:101DC000000C266A1C6A05010351010A000105E0A6
:101DD000030A08E0010A09E01FD0120E276E030E65
:101DE0001C6E1CD0430E276E19D0020E1C6E036AA7
:101DF00005010251210FE96E000E0320EA6EEFCFBC
:101E000026F0036A2650F2CF8EF0F29E0001E1DD4B
:101E10008EBFF28E276E02D08FDF0CD005010753E4
:101E200005E12750065D02E206C527F0010E196E96
:101E3000000185DF34EF10F08E5304E1040E1F6EB5
:101E40002FDFC1D0050E1F6E916F800E906F010EB7
:101E50008F6F8F510F08D8A0B6D0926B036A8F5145
:101E6000F2CF96F0F29E31DD96BFF28E000A51E07D
:101E7000040E926FD8908F35036AF2CF96F0F29EDF
:101E80004CDD0900F5CF03F096BFF28E936F03C0CF
:101E900094F08F51080DF350010F016E040E036E84
:101EA000D8B0032A01C0E9FF03C0EAFF93C0EFFFE7
:101EB0008F51080DF350020F016E040E036ED8B05F
:101EC000032A01C0E9FF03C0EAFF91C0ECFFED5215
:101ED00090C0EFFFD8908F35036AF2CF96F0F29E54
:101EE0001CDD0900F5CF03F096BFF28E902703505A
:101EF0009123880E956F94B1958194B395838F51FA
:101F0000080DF3CF01F0040E01C0E9FFEA6E95C0A1
:101F1000EFFF036A8F51F2CF96F0F29EC6DC96BFB8
:101F2000F28E000A31E092838F51080DF350060FB4
:101F3000016E040E036ED8B0032A01C0E9FF03C08E
:101F4000EAFF91C0ECFFED5290C0EFFFD8908F35C3
:101F5000036AF2CF96F0F29EC8DC0900F5CF03F0D9
:101F600096BFF28E9027035091238F51080DF350A6
:101F7000040F016E040E036ED8B0032A01C0E9FFFE
:101F800003C0EAFF400EEF6E9251060802E10E0E0A
:101F9000926F036A8F51F2CF96F0F29E86DC96BF65
:101FA000F28E020801E09289700E8F25016E0F0EED
:101FB000036ED8B0032A01C0E9FF03C0EAFF92C054
:101FC000EFFF8F2B46D72EEF10F0050101510001D6
:101FD0000DE0010A14E0020A1EE0060A27E0030AE7
:101FE0002CE00E0A2BE0010A2FE03CD01BC040F58C
:101FF0000501416B020E0001916F9BDE35D005019A
:10200000022D06D0010E1B160001916B92DE02D04C
:10201000000192DE29D00501022D05D01B820001AE
:10202000916B87DE02D0000187DE1ED0020E196E92
:1020300002C524F0916B7DDE17D0C3D61AC040F5DF
:10204000010E916F76DE10D005010251010808E300
:1020500002C51AF002C58EF00001EED6916B69DE62
:10206000000102D069DE00D0AEEF11F01AC08EF090
:1020700005010151000105E00A0A0BE0010A2BE00D
:102080003CD00501406B416B020E0001916F51DEA7
:1020900036D08E531EE0010E8E5D036AF2CF90F0B3
:1020A000F29E7DDC90BFF28E016E0501045DD8A02A
:1020B00002D000010ED0036A0451280FE96E000E11
:1020C0000320EA6EEFCF40F5010E0001916F31DE83
:1020D00001D032DE14D08E530EE0036A05010451A4
:1020E000280FE96E000E0320EA6E02C5EFFF000123
:1020F000916B1FDE01D020DE02D01EDE00D0AEEFDD
:1021000011F08F918EBF8F818E9F8FA111D0036AA6
:102110008E51F2CF90F0F29E55EC0CF090BFF28E03
:10212000000A02E1000E01D0010E016E11D010D0A4
:10213000036A8E51F2CF90F0F29E65EC0CF090BFE6
:10214000F28E000A02E1000E01D0010E016E00D0F5
:102150001AEF11F08F918EBF8F818E9F8FA110D0BB
:102160008E51080DF350040F016E040E036ED8B0AB
:10217000032A01C0E9FF03C0EAFF880EEF6E09D011
:102180008E51080DF3CF01F0040E01C0E9FFEA6E95
:10219000EF6A29EF11F08F918EBF8F818E9F8FA1F3
:1021A00010D08E51080DF350040F016E040E036E13
:1021B000D8B0032A01C0E9FF03C0EAFF840EEF6E26
:1021C0000AD08E51080DF3CF01F0040E01C0E9FFD3
:1021D000EA6E840EEF6E2FEF11F08F918EBF8F811C
:1021E0008E9F8FA110D08E51080DF350040F016EF9
:1021F000040E036ED8B0032A01C0E9FF03C0EAFF52
:10220000EFCF90F00AD08E51080DF3CF01F0040EFD
:1022100001C0E9FFEA6EEFCF90F090AF02D090B529
:1022200002D0000E01D0010E016E39EF11F004C58D
:102230008EF067D7015229E005010151010A000122
:1022400005E0020A09E0030A0DE01DD004C58EF086
:1022500081D7916B6EDD19D004C58EF09CD7916B40
:1022600068DD13D00501406B416B04C58EF00001A1
:10227000B4D7015204E0010E0501406F0001020EC7
:10228000916F57DD02D058DD00D0AEEF11F0FE0E99
:10229000206E000C0501042D01D002D0045348E14A
:1022A000015100010BE0010A0DE0210A1CE0010AC6
:1022B0001FE0030A2EE0010A31E037D0010E816FE2
:1022C000E6DF35D0050EEA6E400EE96EE26A330EA7
:1022D000E16E080E016EE6CFEEFF012EFCD706C5BB
:1022E00091F027DD24D0020E816F7B83D0DF1FD0D9
:1022F000050EEA6E400EE96EE26A2A0EE16E070EE6
:10230000016EE6CFEEFF012EFCD7070E916F11DDB7
:102310000ED002C580F0916B0CDD09D002C532F001
:1023200003C531F0916B05DD02D006DD00D005015B
:102330000001AEEF11F0196A050100517F0B000199
:1023400007E0010A06E0030A05E0230A04E004D0DE
:102350003CD68CD66CD79ED7EFDC00D095EF13F02F
:102360008E51080DF3CF01F0040E01C0E9FFEA6EB3
:10237000EFCF90F08F51020806E190AD02D08F6B45
:1023800002D0010E8F6F8F51030812E1840E906FFF
:102390008E51080DF350040F016E040E036ED8B079
:1023A000032A01C0E9FF03C0EAFF840EEF6E09D0E3
:1023B0008F2D03D0C80E906F04D08F5302E1880E8A
:1023C000906F036A010E026E8E51006E05E0D89088
:1023D00002360336002EFBD70250FF0A006EFF0EB6
:1023E000031A00501D1603501E16D8908E35036A2E
:1023F000F2CF93F0F29E8DEC0CF00900F5CF03F0D4
:1024000093BFF28E916F03C092F08E51080DF3507E
:10241000010F016E040E036ED8B0032A01C0E9FF5C
:1024200003C0EAFF91C0EFFF92B1908192B3908315
:102430008E51080DF3CF01F0040E01C0E9FFEA6EE2
:1024400090C0EFFF000C9A51080DF350040F016E7D
:10245000040E036ED8B0032A01C0E9FF03C0EAFFEF
:10246000EFCF9EF09EBF5BD09A51080DF350050F41
:10247000016E040E036ED8B0032A01C0E9FF03C049
:10248000EAFF9BC0EFFF9D51020816E19A51080D2B
:10249000F350040F016E040E036ED8B0032A01C07E
:1024A000E9FF03C0EAFFEFCF9EF09EAD02D09D6B27
:1024B00002D0010E9D6F13D09D51040810E19A5176
:1024C000080DF3CF01F0040E01C0E9FFEA6EEFCF73
:1024D0009EF09EAD03D0010E9D6F01D09D6B9D2D92
:1024E00003D0C80E9E6F04D09D5302E1880E9E6FEC
:1024F0009CB19E819CB39E839A51080DF350040FAA
:10250000016E040E036ED8B0032A01C0E9FF03C0B8
:10251000EAFF9EC0EFFF010E016E03D000D0000E57
:10252000016E000C8151010A03E0030A12E022D07F
:10253000EA6A330EE96E050EE26EE16A080E016E7C
:10254000E6CFEEFF012EFCD7916B99EC0EF0816B7C
:1025500015D0EA6A2A0EE96E050EE26EE16A070EF0
:10256000016EE6CFEEFF012EFCD7816B916B99ECEB
:102570000EF004D0816B66EC0EF000D0E0EF12F0AC
:102580008F51080DF350010F016E040E036ED8B089
:10259000032A01C0E9FF03C0EAFF036AEFCF01F09D
:1025A00003C002F0D9EF12F07D817F6B020E8F6FB6
:1025B000E7D701C07EF0E5EF12F08E5302E1B2D70B
:1025C00014D08E51020802E1EFD70FD0036A010E3A
:1025D000026E8E51006E05E0D89002360336002E52
:1025E000FBD702501D1203501E12000C8FC06EFF4D
:1025F0008F5303E0040E1F6E02D0020E1F6E06EF13
:1026000013F01A6A196A24C08FF0F0D77FEF13F025
:102610008F51080DF350040F016E040E036ED8B0F5
:10262000032A01C0E9FF03C0EAFFEFCF97F097BF8D
:102630003FD08F51080DF350060F016E040E036E4C
:10264000D8B0032A01C0E9FF03C0EAFFECCF03F0D2
:10265000ED52EFCF98F003C099F0966B956B9651C1
:10266000935D1AE303E19251955D16E290C0E9FF94
:1026700091C0EAFFEFCF9CF099C0EAFF98C0E9FF54
:102680009CC0EFFF982BD8B4992B902BD8B4912BEA
:10269000952BD8B4962BE3D78FC09AF093C09CF0BB
:1026A00092C09BF094C09DF0CEDE015003D000D0CC
:1026B000000E016E6AEF13F07C530DE07B91020E69
:1026C0008F6F916B3B0E906F936B7CC092F0020EFC
:1026D000946F9ED77C6B70EF13F07C5302E0ECD7C5
:1026E00001D07B8184EF13F08E530AE1192C03D0C3
:1026F0009FEC0EF004D01950020801E182D704D0FB
:102700008E51020801E1E9D7000C6C308D6F8D33DA
:102710008D331F0E8D176C523BE1040100513C0BB1
:1027200034081BE1046B000106D6203C05D08E6BFB
:10273000030E8F6F15DE0ED08E6B020E8F6F10DEC4
:102740002050FE0807E09A6B9C6B20C09BF0040EA3
:102750009D6F79DE6D9819D0040100513C0B04087F
:1027600015E100018E6B29DF8E6B020E8F6FF8DD95
:102770002050FE080AE0203C01D007D09A6B9C6BE9
:1027800020C09BF0010E9D6F5EDE040120D0000191
:102790006C50040812E1FF0E206E8E6BA5DF203C0A
:1027A00001D008D09A6B9C6B20C09BF0020E9D6FED
:1027B0004ADE02D066EC0EF009D06CB404D08DC0B5
:1027C0008EF0FBDE03D08DC08EF08EDF04010001A1
:1027D0001BEF14F01F5201E12FD068522DE068A4C6
:1027E00004D069A402D021EF0EF06DA201D024D054
:1027F00068A204D069A202D026EF0EF068A004D02F
:1028000069A002D075EF0EF068A804D069A802D0C4
:102810008AEF0EF068AC04D069AC02D08FEF0EF0F6
:1028200068AA04D069AA02D092EF0EF068A604D07C
:1028300069A602D06AD76896A19A32EF0CF09EAAD8
:10284000FED7AECF8DF08D530BE08D3D01D008D07B
:1028500094948B748DC082F08D511B08D8B4FF0006
:102860009E9A32EF0CF0EA6A850EE96EEF500EE0A8
:102870000F0E016E006A002EFED7012EFBD78F0EC1
:10288000006E002EFED70000EF2EF2D7000C836BF7
:10289000846B84510CEC0DF0842B006E00509EA8CC
:1028A000FED7AD6E240E845DF4E1846B84512CEC74
:1028B0000DF0842B006E00509EA8FED7AD6E100E5A
:1028C000845DF4E1020E846F960E856FCCDF842F59
:1028D000FBD7846B845142EC0DF0842B006E0050CA
:1028E0009EA8FED7AD6E060E845DF4E1836B835126
:1028F000090807E394948B74320E856FB4DF832B41
:10290000F6D7846B845153EC0DF0842B006E00508D
:102910009EA8FED7AD6E0C0E845DF4E1846B8451ED
:1029200067EC0DF0842B006E00509EA8FED7AD6EB4
:102930000A0E845DF4E1F18E846B84517AEC0DF023
:10294000842B006E00509EA8FED7AD6E100E845DE5
:10295000F4E1C150C00B0F09C16E9D8A846B845194
:1029600090EC0DF0842B006E00509EA8FED7AD6E4B
:10297000150E845DF4E1C00EF212846B8451A8EC54
:102980000DF0842B006E00509EA8FED7AD6E1A0E7F
:10299000845DF4E1846B8451C3EC0DF0842B006EF4
:1029A00000509EA8FED7AD6E0B0E845DF4E1F9EFEA
:1029B00015F06D6A696A080E6F6E94503009946E56
:1029C0001F6A186AF2BE188EF29E3CEC0EF018BE1A
:1029D000F28E1E6A1D6A11EF15F0186AF2BE188E8B
:1029E000F29E3CEC0EF018BEF28E6D6A140E6F6E05
:1029F000696A6D86010E1F6E01EF15F06DB601D08C
:102A0000ECD71F2C0BD06DBA09D0686A696AA08A0E
:102A1000C00EF212110E696E020E1F6E12EF15F04B
:102A2000C8D7ECD71F500208FCE1FCEF15F08CB1C1
:102A300002D08A9A01D08A8A939A8CB302D08A985B
:102A400001D08A8893988CB502D08A9601D08A8664
:102A500093968CB702D08A9401D08A849394030E03
:102A6000006E002EFED700D0939C8A8C070E006E5D
:102A7000002EFED700D0939C8A9C000C939E8A9EC9
:102A8000EF0E006E002EFED700D0895303E0939E18
:102A90008A8E02D0939E8A9E0000939C8A9C8A39DB
:102AA0008B6F0F0E8B178BC08CF0C1DF8A510F0B11
:102AB0008B6F8C6FBCDF000C939E8A9E939C8A9CCC
:102AC0000F0E856FD0DE836B8351020808E3030E7F
:102AD0008C6FADDF050E856FC6DE832BF5D7020E3A
:102AE0008C6FA5DF836B8351030812E3036A835164
:102AF000F2CF84F0F29ED6EC0DF084BFF28E856F9B
:102B0000896B8A6FBBDF050E856FADDE832BEBD73C
:102B1000FDEF15F0862D01D003D0400E876F01D058
:102B2000876B010E855D872787518009886F896BC8
:102B30008A6FA4DF000C84510C0A05E0010A0BE047
:102B4000050A0FE013D0896B010E8A6F97DF020E22
:102B5000856F89DE11D0010E856F020E866FDADF78
:102B60000BD0896B100E8A6F89DF06D0010E896F3A
:102B700084C08AF083DF00D0000C8C9C959C8C9ED6
:102B8000959E8C9895988C9A959A000C8C8C959C17
:102B90008C9E959E8C8895988C9A959A73EF16F0DA
:102BA0008C9C959C8C8E959E8C9895988C8A959AE9
:102BB00088EF16F0F86AD09E0D8EEA6AE96AB88648
:102BC000E10EAF6E040EB06EA60EAC6E900EAB6E44
:102BD000C150C00B0F09C16E070EB46E1F6A216A87
:102BE000040E226E0E0E236E276A7C6B816B826B45
:102BF0004ED62AEC0EF014D75FD7C80E856F33DEA1
:102C0000010E856F866F86DF836B8351E5EC0DF0D7
:102C1000832B006E846F8FDF0B0E835DF6E1010E58
:102C2000856F866F77DF020E836FFA0E856F1BDE6E
:102C3000832FFBD7836B8351F8EC0DF0832B006E51
:102C4000846F79DF130E835DF6E17BA301D065D03D
:102C5000020E836FFA0E856F06DE832FFBD7010EFF
:102C6000856F866F57DF836B8351F8EC0DF0832BF4
:102C7000006E846F60DF130E835DF6E17EDF928865
:102C800080B814D0010E856F866F44DF836B83514B
:102C90000FEC0EF0832B006E846F4DDF090E835D09
:102CA000F6E1010E856F866F35DFE9D7010E856F7E
:102CB000866F30DF836B8351F8EC0DF0832B006E51
:102CC000846F39DF130E835DF6E1020E836FFA0E17
:102CD000856FC9DD832FFBD7928680B604D09282A0
:102CE00080B201D053D7928680B604D0928280A25F
:102CF00001D043DF928680A604D0928280B201D0B8
:102D00003CDF928680A604D0928280A201D048D770
:0E2D1000928880A801D001D0DFD797D70300AA
:020000040030CA
:0E00000020C23E1E008381000FC00FE00F40A3
:00000001FF
;PIC18F4550
