:041800009FEF1CF04A
:08180800046ED8CF05F0E0CF1B
:1018100006F00001E9CF0CF0EACF07F0E1CF08F0C5
:10182000E2CF09F0D9CF0AF0DACF0BF0F3CF12F004
:10183000F4CF13F0FACF14F000C00EF001C00FF097
:1018400002C010F003C011F09DA22AEF0CF09EB26E
:1018500035EF15F09DAA30EF0CF09EBADCEF14F0D6
:10186000A0AA36EF0CF0A1BA3CEF14F00EC000F0C5
:101870000FC001F010C002F011C003F00CC0E9FF6E
:1018800007C0EAFF078E08C0E1FF09C0E2FF0AC0F7
:10189000D9FF0BC0DAFF12C0F3FF13C0F4FF14C06E
:1018A000FAFF045006C0E0FF05C0D8FF1000F76A39
:1018B000BE0FF66E180EF7220900F5501200000355
:1018C00002FFFFFFFFFFFFFFFFFFFFFFFFFFF76AC2
:1018D000DE0FF66E180EF7220900F550120000FF19
:1018E00002FFFFFFFFFFFFFFFFFFFFFFFFFFF76AA2
:1018F000FE0FF66E180EF7220900F5501200400098
:10190000080040000000000000000000000000008F
:101910000000000000000000000000000000F76A66
:101920002E0FF66E190EF7220900F5501200400036
:101930000000400000000000000000000000000067
:101940000000000000000000000000000000F76A36
:101950005E0FF66E190EF7220900F550120009020B
:101960004300020100C0320904000001020201002C
:1019700005240010010424020205240600010524A8
:10198000010001070581030800FA09040100020AA9
:10199000000000070502024000FA0705820240002D
:1019A000FA00F76AB20FF66E190EF7220900F55029
:1019B00012000200F76AC40FF66E190EF722090032
:1019C000F5501200120017001B002000FFFFFFFF60
:1019D000FFFFFFFFF76AE40FF66E190EF72209000A
:1019E000F55012001201100102000040D80401005D
:1019F000000101020001F76A060FF66E1A0EF722C7
:101A00000900F5501200040309040A0341005500BF
:101A10005200450028034100750072006500420035
:101A20006F006100720064002000550073006200C6
:101A30002D0053006500720069006500F2CF0DF0C3
:101A4000F29EF76A560FF66E1A0EF7220900F5504D
:101A50000DBEF28E1200280C01066D92699468A4E6
:101A600002D06894FCD748EF14F0400E0401016FD7
:101A7000040E036F180E026F880E006F046B040EC5
:101A8000076F580E066F0001000C70A002D0EDDF4A
:101A90007090689A51EF14F06A6A689257EF14F0E8
:101AA000BC91BBBFBC81BB9FBB51100803E2000EC1
:101AB000016E21D0BCA110D0036ABB51F2CFBDF0A2
:101AC000F29EF5DEBDBFF28EFF0802E1000E01D0EE
:101AD000010E016E10D00FD0036ABB51F2CFBDF0E2
:101AE000F29EF5DEBDBFF28EFF0802E1000E01D0CE
:101AF000010E016E00D0000CC051C203F3CF01F003
:101B0000F4CF00F0C303F3500026C151C203F350D9
:101B10000020026E000C036ABA51700FE96E0F0EBE
:101B20000320EA6EEF6ABAC0BBF0BADF015222E0CE
:101B3000C16BBAC0C0F0C36B080EC26FDDDF01C05D
:101B4000E9FF040E0224EA6EEF6AC16BBAC0C0F06E
:101B5000C36B080EC26FD0DF02C0BCF001C0BBF087
:101B6000040EBB27000EBC23BBC0E9FF040EBC253E
:101B7000EA6EEF6A000C010EB96FB9510F0805E368
:101B8000B9C0BAF0C8DFB92BF8D7000C2B6A2A6AA3
:101B9000250E296E800E286E2C6A2D6A080E2E6E78
:101BA0007D6B2492306A2F6A796B7A912480000CC5
:101BB000AF6BAF5101080AE3036AAF51260FE96E1C
:101BC000000E0320EA6EEF6AAF2BF3D7DFDF186A4F
:101BD000010E196E176A000C6896000C6A6A686A32
:101BE0009F0E6B6E3D0E696E6E6AC5DFE1DF160EED
:101BF000706E68A602D0F0DFFCD76D9836DF030E5A
:101C00001F6E5DEF14F0698468986D8263EF14F0C5
:101C1000689C69EF14F0B4C020F0000CFF0E206E39
:101C2000000CB26B235235E0B2513F0832E31A5038
:101C300005E0020A0DE0010A15E01ED0036A2250F9
:101C4000F2CFB4F0F29E83DEB4BFF28EB36F14D045
:101C5000036A2250F2CFB4F0F29ECDDEB4BFF28E12
:101C6000B36F0AD0036A2250F2CFB4F0F29EB2DE14
:101C7000B4BFF28EB36F00D0222A2306B251B22B2A
:101C8000580FE96E040EEA6ED8B0EA2AB3C0EFFF2F
:101C9000C9D7235204E1B251400801E0176AB2C02B
:101CA000B4F0B9DF000C226A1A6A04011B51010A60
:101CB000000107E0030A0AE0010A0BE0220A20E023
:101CC0003ED0120E236E030E1A6E3BD0430E236ECF
:101CD00038D0020E1A6E036A04011A511B0FE96E06
:101CE000000E0320EA6EEFCF22F0036A2250F2CFFB
:101CF000B1F0F29E00017FDEB1BFF28E236E21D0E3
:101D0000D89004011A35036AF2CFB1F0F29E0001B7
:101D100051DE0900F5CF03F0B1BFF28E226E223CF6
:101D200001D00BD0036A2250F2CFB1F0F29E0FDE49
:101D3000B1BFF28E236E05D002D070DF0ED06EDF01
:101D40000CD004011F5305E123501E5D02E21EC4A6
:101D500023F0010E176E000164DFEFEF0FF0B153B7
:101D600004E1040E1F6E07DFE7D0050E1F6E040EA0
:101D7000B46F980EB36F010EB26FB2510F08D8A0B6
:101D8000DBD0B2C0BAF0C7DEB56B036AB251F2CF96
:101D9000B9F0F29E9CDDB9BFF28EFF0863E0040E3D
:101DA000B56FD890B235036AF2CFB9F0F29EB7DDC5
:101DB0000900F5CF03F0B9BFF28EB66F03C0B7F0DC
:101DC000C16BB2C0C0F0C36B080EC26F95DE01C01C
:101DD000B9F0010E0124016E000E0220036E01C055
:101DE000E9FF040E0324EA6EB6C0EFFFC16BB2C078
:101DF000C0F0C36B080EC26F7FDE01C0B9F0020EE7
:101E00000124016E000E0220036E01C0E9FF040EE2
:101E10000324EA6EB4C0ECFFED52B3C0EFFFD890DC
:101E2000B235036AF2CFB9F0F29E79DD0900F5CF41
:101E300003F0B9BFF28EB3270350B423880EB86FF6
:101E4000B7B1B881B7B3B883C16BB2C0C0F0C36BD0
:101E5000080EC26F51DE01C0E9FF040E0224EA6ED3
:101E6000B8C0EFFF036AB251F2CFB9F0F29E1FDDA6
:101E7000B9BFF28EFF0845E0B583C16BB2C0C0F0B8
:101E8000C36B080EC26F38DE02C0BAF001C0B9F0F1
:101E9000040EB927000EBA23020EB925016E000EFA
:101EA000BA21036E01C0E9FF040E0324EA6EB4C038
:101EB000ECFFED52B3C0EFFFD890B235036AF2CF1A
:101EC000B9F0F29E14DD0900F5CF03F0B9BFF28E30
:101ED000B3270350B423C16BB2C0C0F0C36B080E6C
:101EE000C26F0ADE02C0BAF001C0B9F0040EB92711
:101EF000000EBA23B9C0E9FF040EBA25EA6E400EFF
:101F0000EF6EB551060802E10E0EB56F036AB251CD
:101F1000F2CFB9F0F29ECBDCB9BFF28E0108D8A4A3
:101F2000B589036AB251700FE96E0F0E0320EA6E95
:101F3000B5C0EFFFB22B21D7E9EF0FF00401195123
:101F4000000A00010DE0010A14E0020A1EE0060A80
:101F500027E0030A2CE00E0A2CE0010A30E03DD015
:101F600019C058F40401596B020E0001B46F53DE1E
:101F700036D004011A2D06D0010E19160001B46BDB
:101F80004ADE02D000014ADE2AD004011A2D05D013
:101F900019820001B46B3FDE02D000013FDE1FD08A
:101FA000020E176E1AC421F0B46B35DE18D07BD642
:101FB00016D018C058F4010EB46F2DDE10D00401F5
:101FC0001A51010808E31AC418F01AC4B1F000014C
:101FD000C6D6B46B20DE000102D020DE00D068EF50
:101FE00011F018C0B1F004011951000A000105E018
:101FF0000A0A0BE0010A2BE03CD00401586B596B34
:10200000020E0001B46F07DE36D0B1531EE0010EA0
:10201000B15D036AF2CFB2F0F29EC3DCB2BFF28EC2
:10202000016E04011C5DD8A002D000010ED0036A2D
:102030001C51260FE96E000E0320EA6EEFCF58F414
:10204000010E0001B46FE7DD01D0E8DD14D0B1531B
:102050000EE0036A04011C51260FE96E000E0320F6
:10206000EA6E1AC4EFFF0001B46BD5DD01D0D6DDF6
:1020700002D0D4DD00D068EF11F0B291B1BFB281CF
:10208000B19FB2A117D0C16BB1C0C0F0C36B080E35
:10209000C26F32DD02C0B4F001C0B3F0040EB3274A
:1020A000000EB423B3C0E9FF040EB425EA6E880E17
:1020B000EF6E0DD0C16BB1C0C0F0C36B080EC26F24
:1020C0001BDD01C0E9FF040E0224EA6EEF6ADDEFBA
:1020D00010F0B291B1BFB281B19FB2A117D0C16B64
:1020E000B1C0C0F0C36B080EC26F06DD02C0B4F011
:1020F00001C0B3F0040EB327000EB423B3C0E9FF50
:10210000040EB425EA6E840EEF6E0ED0C16BB1C022
:10211000C0F0C36B080EC26FEFDC01C0E9FF040E14
:102120000224EA6E840EEF6EE3EF10F0B291B1BFBD
:10213000B281B19FB2A117D0C16BB1C0C0F0C36B67
:10214000080EC26FD9DC02C0B5F001C0B4F0040EB5
:10215000B427000EB523B4C0E9FF040EB525EA6E1E
:10216000EFCFB3F00ED0C16BB1C0C0F0C36B080E9F
:10217000C26FC2DC01C0E9FF040E0224EA6EEFCF99
:10218000B3F0B3AF02D0B3B502D0000E01D0010E50
:10219000016EEDEF10F01CC4BBF082DC015229E0AF
:1021A00004011951010A000105E0020A09E0030ACD
:1021B0000DE01DD01CC4B1F060D7B46B2CDD19D07C
:1021C0001CC4B1F086D7B46B26DD13D00401586B64
:1021D000596B1CC4B1F00001A9D7015204E0010EF3
:1021E0000401586F0001020EB46F15DD02D016DD38
:1021F00000D068EF11F0FE0E206E000C04011C2DC3
:1022000001D002D01C5349E11951000A00010BE032
:10221000010A0DE0210A1CE0010A1FE0030A2EE07A
:10222000010A31E037D0010E7E6FE5DF35D0040EB4
:10223000EA6E580EE96EE26A310EE16E080E016E2A
:10224000E6CFEEFF012EFCD71EC4B4F0E4DC24D0B0
:10225000020E7E6F2482CFDF1FD0040EEA6E580E6E
:10226000E96EE26A280EE16E070E016EE6CFEEFF20
:10227000012EFCD7070EB46FCEDC0ED01AC47DF051
:10228000B46BC9DC09D01AC430F01BC42FF0B46B96
:10229000C2DC02D0C3DC00D00401000168EF11F001
:1022A000176A040118517F0B000A000107E0010AB8
:1022B00007E0030A07E0230A07E008D03FD608D06A
:1022C00090D606D068D704D099D702D0A7DC00D02A
:1022D00091EF13F0C16BB1C0C0F0C36B080EC26FB9
:1022E0000BDC01C0E9FF040E0224EA6EEFCFB3F06D
:1022F000B251020806E1B3AD02D0B26B02D0010EBA
:10230000B26FB25103081AE1840EB36FC16BB1C052
:10231000C0F0C36B080EC26F7CEC0DF002C0B7F0CA
:1023200001C0B6F0040EB627000EB723B6C0E9FF11
:10233000040EB725EA6E840EEF6E07D0B22D03D0DF
:10234000C80EB36F02D0880EB36FD890B135036A50
:10235000F2CFB6F0F29E8FEC0CF00900F5CF03F04F
:10236000B6BFF28EB46F03C0B5F0C16BB1C0C0F0A0
:10237000C36B080EC26F7CEC0DF001C0B6F0010E0D
:102380000124016E000E0220036E01C0E9FF040E5D
:102390000324EA6EB4C0EFFFB5B1B381B5B3B38324
:1023A000C16BB1C0C0F0C36B080EC26F7CEC0DF006
:1023B00001C0E9FF040E0224EA6EB3C0EFFF000C77
:1023C000036ABF51700FE96E0F0E0320EA6EEF52E1
:1023D00019E0C16BBFC0C0F0C36B080EC26F7CECCC
:1023E0000DF002C0C1F001C0C0F0040EC027000E05
:1023F000C123C0C0E9FF040EC125EA6EEFCFC0F0D3
:10240000C0AF02D0000E01D0010E016E000CBAC0A8
:10241000BFF0D6DF0152D8B47CD0C16BBAC0C0F0D7
:10242000C36B080EC26F7CEC0DF002C0C0F001C09F
:10243000BFF0040EBF27000EC023010EBF25016EA2
:10244000000EC021036E01C0E9FF040E0324EA6EF2
:10245000BBC0EFFFBD5102081EE1C16BBAC0C0F0A6
:10246000C36B080EC26F7CEC0DF002C0C0F001C05F
:10247000BFF0040EBF27000EC023BFC0E9FF040E4B
:10248000C025EA6EEFCFBEF0BEAD02D0BD6B02D06C
:10249000010EBD6F18D0BD51040815E1C16BBAC063
:1024A000C0F0C36B080EC26F7CEC0DF001C0E9FFF9
:1024B000040E0224EA6EEFCFBEF0BEAD03D0010ED3
:1024C000BD6F01D0BD6BBD2D03D0C80EBE6F02D055
:1024D000880EBE6FBCB1BE81BCB3BE83C16BBAC037
:1024E000C0F0C36B080EC26F7CEC0DF002C0C0F0F0
:1024F00001C0BFF0040EBF27000EC023BFC0E9FF1C
:10250000040EC025EA6EBEC0EFFF010E016E03D0BF
:1025100000D0000E016E000C7E51010A03E0030A98
:1025200013E024D0EA6A310EE96E040EE26E180E52
:10253000E16E080E016EE6CFEEFF012EFCD7B46B04
:102540000BEC0EF07E6B16D0EA6A280EE96E040ED4
:10255000E26E180EE16E070E016EE6CFEEFF012E61
:10256000FCD77E6BB46B0BEC0EF004D07E6B35ECBD
:102570000DF000D0E6EF12F0C16BB2C0C0F0C36B3B
:10258000080EC26F7CEC0DF002C0B4F001C0B3F0D5
:10259000010E0124016E000E0220036E01C0E9FF4E
:1025A000040E0324EA6E036AEFCF01F003C002F0C9
:1025B000DFEF12F07A817C6B020EB26FDDD701C0C3
:1025C0007BF0EBEF12F0B15302E1A6D704D0B1518A
:1025D000020801E1EFD7000CB2C06EFFB25303E076
:1025E000040E1F6E02D0020E1F6EFCEF12F0186A6E
:1025F000176A21C0B2F0F0D770EF13F0B2C0BFF08D
:10260000DFDE015246E0C16BB2C0C0F0C36B080E02
:10261000C26F7CEC0DF002C0BBF001C0BAF0040E3A
:10262000BA27000EBB23020EBA25016E000EBB2195
:10263000036E01C0E9FF040E0324EA6EECCF03F041
:10264000ED52EFCFB8F003C0B9F0B9C0EAFFB8C09F
:10265000E9FFB4C0E2FFB3C0E1FFB6C002F0B5C00D
:1026600001F0015202E0022A02D0025206E0E6CF57
:10267000EEFF012EFCD7022EFAD7B2C0BAF0B6C0D8
:10268000BCF0B5C0BBF0B7C0BDF0C1DE015003D097
:1026900000D0000E016E5BEF13F079530DE0249033
:1026A000020EB26FB46B390EB36FB66B79C0B5F072
:1026B000020EB76FA3D7796B61EF13F0795302E085
:1026C000ECD701D0248075EF13F0B1530AE1172C39
:1026D00003D011EC0EF004D01750020801E187D7A7
:1026E00004D0B151020801E1E9D7000C1E30AF6FF0
:1026F000AF33AF331F0EAF171E5242E1040100513A
:102700003C0B0001B06F430E040100170001B051F3
:1027100034081EE104010451800B01E0046B000148
:10272000BFD56D98203C05D0B16B030EB26FD2DDE2
:102730000ED0B16B020EB26FCDDD2050FE0807E067
:10274000BA6BBC6B20C0BBF0040EBD6F60DE17D04F
:10275000B051040814E1B16B36DFB16B020EB26FF9
:10276000B9DD2050FE080AE0203C01D007D0BA6B4A
:10277000BC6B20C0BBF0010EBD6F49DE00D07AD02B
:102780001E50040814E1430E04010417FF0E206ECE
:102790000001B16B9ADF203C01D008D0BA6BBC6B52
:1027A00020C0BBF0020EBD6F32DE00D063D01EB47D
:1027B0002AD0C16BAFC0C0F0C36B080EC26F7CECF7
:1027C0000DF001C0B1F001C001F0040E0224036E4F
:1027D00001C0B1F0B26FC16BAFC0C0F0C36B080EE7
:1027E000C26F7CEC0DF001C0E9FF040E0224EA6E1A
:1027F000EF50430BB2C0EAFFB1C0E9FFEF6EAFC0CC
:10280000B1F0E1DE37D0C16BAFC0C0F0C36B080ED2
:10281000C26F7CEC0DF002C0B2F001C0B1F0040E4A
:10282000B127000EB223B1C001F0040EB225036E31
:10283000B1C0B1F0B26FC16BAFC0C0F0C36B080ED6
:10284000C26F7CEC0DF002C0B4F001C0B3F0040E16
:10285000B327000EB423B3C0E9FF040EB425EA6E1B
:10286000EF50430BB2C0EAFFB1C0E9FFEF6EAFC05B
:10287000B1F02BDF73EF14F0A19A1F5201E139D0B0
:10288000685237E068A404D069A402D02DEF0DF09F
:102890006DA201D02ED068AA04D069AA02D045EF5B
:1028A0000DF068A204D069A202D04CEF0DF068A030
:1028B00004D069A002D0EEEF0DF068A804D069A89A
:1028C00002D003EF0EF068AC04D069AC02D008EF80
:1028D0000EF0AE6B68A608D069A606D06CCF1EF0CD
:1028E000ECEC0DF003D701D004D0AE51AE2B0308B1
:1028F000F1E236EF0CF00D0A0A2D41757265426F58
:1029000061726420A14C69737461210D0A000D0A83
:1029100041555245424F540D0A5F5F5F5F5F5F5FF5
:102920000D0A0D0A496E696369616E646F2E2E2E61
:102930000D0A00005B44656C617920333030206DF6
:10294000735D0D0A00005B4F6B5D0D0A00002D4C9E
:1029500065642056657264650D0A00002D5553426A
:10296000204344430D0A00002D50756C6C20757097
:102970002773204F46460D0A00002D496E7465727C
:1029800072757063696F6E2053455249450D0A0098
:102990002D496E74657272757063696F6E65732010
:1029A000676C6F62616C65730D0A0000A14C6973FE
:1029B0007461210D0A0D0A009EAAFED7AECFAEF0BB
:1029C000AE530BE0AE3D01D008D094948B74AEC0F2
:1029D0007FF0AE511B08D8B4FF009E9A36EF0CF082
:1029E0002573207C20282575290D0A002D4144439C
:1029F0000D0A00002D434E59373020636F6E666913
:102A000067757261646F0D0A00002D54494D45527F
:102A10003220646573636F6E666967757261646F97
:102A20000D0A00002D536572766F73206465736321
:102A30006F6E65637461646F730D0A002D54494DA8
:102A400045523220436F6E666967757261646F0D1F
:102A50000A002D536572766F7320636F6E66696727
:102A6000757261646F730D0A0000822BD8B4832BDA
:102A70002D0E8025835303E1825D03E002E39594EC
:102A80008C942D0E8125835303E1825D03E002E3E4
:102A900095968C96835106080CE2FF0A03E1825159
:102AA000CE0807E295948C8495968C86836B826B16
:102AB000842B9E9236EF0CF0536572766F3A202588
:102AC00075202020200D0000436F6D70726F6261D1
:102AD0006E646F20736572766F732E2E2E0D0A0052
:102AE000536572766F7320612025752079202575D6
:102AF00020726573706563746976616D656E746567
:102B00002E0D0A00436F6D70726F62616E646F20EC
:102B10006D6F746F7265732E2E2E0D0A00000941C1
:102B200064656C616E74650D0A00094174726173AD
:102B30000D0A000009446572656368610D0A0000B2
:102B400009497A717569657264610D0A00004D6FFB
:102B5000746F72657320636F6D70726F6261646F02
:102B6000730D0A0D0A00436F6D70726F62616E64BF
:102B70006F2062756D706572732E2E2E0D0A000027
:102B800042756D70657220697A7175696572646FDE
:102B90003A2025642042756D706572206465726507
:102BA00063686F3A2025640D0A002D4144430D0AE5
:102BB00000002D4C44527320636F6E666967757216
:102BC000616461730D0A0000436F6D70726F626122
:102BD0006E646F2073656E736F726573204C445220
:102BE0002E2E2E0D0A00436F6E6669677572616E38
:102BF000646F2E2E2E0D0A000953656E736F7220BE
:102C00006465726563686F3A0D0A00000953656E6A
:102C1000736F7220697A7175696572646F3A0D0A13
:102C200000004275736361646F720D6465206C759A
:102C30007A004170617263616D69656E746F000046
:102C400053697374656D61206F6B20004573706507
:102C500072616E646F0D206D6F646F00456C656707
:102C60006972206D6F646F3A200035207061726167
:102C70002073616C69722E2000004D6F646F3A20E2
:102C8000000054756E656C2000004D6F646F3A2033
:102C9000000041706172636172004D6F646F3A2091
:102CA000000042756D706572732000004D6F646F97
:102CB0003A20000053616C69722000004861732063
:102CC000656C656769646F3A20257520000056754C
:102CD000656C766520612000696E74656E74617242
:102CE0006C6F2E2000004552524F523A2000343073
:102CF0003420000050726F6772616D612000666958
:102D00006E616C697A61646F2E2000000900F552D3
:102D10000DE0F6CF88F0F7CF89F0F5509EA8FED7EA
:102D2000AD6E88C0F6FF89C0F7FFF0D7000CEA6AE5
:102D30009E0EE96EEF500EE00F0E016E006A002E3F
:102D4000FED7012EFBD78F0E006E002EFED700009F
:102D5000EF2EF2D7000C876B0E0EF66E290EF76E73
:102D6000D5DF340EF66E290EF76ED0DF020E886FB7
:102D7000960E9E6FDCDF882FFBD7460EF66E290E6F
:102D8000F76EC4DF876B8751090807E394948B744F
:102D9000320E9E6FCCDF872BF6D74E0EF66E290EC5
:102DA000F76EB4DF5C0EF66E290EF76EAFDFF18EB4
:102DB000680EF66E290EF76EA9DFC150C00B0F0921
:102DC000C16E9D8A7A0EF66E290EF76E9FDFC00ED9
:102DD000F212900EF66E290EF76E98DFAC0EF66EBC
:102DE000290EF76E93DFC6EF1CF06D6A696A080E54
:102DF0006F6E94503009946E1F6A166AF2BE168E7A
:102E0000F29ED8EC0DF016BEF28E08EF17F0EDD75B
:102E10002DEF17F0166AF2BE168EF29ED8EC0DF06A
:102E200016BEF28E6D6A140E6F6E696A6D86010EA3
:102E30001F6E1EEF17F06DB601D0ECD71F2C0BD014
:102E40006DBA09D0686A696AA08AC00EF212110EC2
:102E5000696E020E1F6E000CDAD7EDDF1F500208FC
:102E6000FCE1CAEF1CF0A4B102D08A9A01D08A8A90
:102E7000939AA4B302D08A9801D08A889398A4B573
:102E800002D08A9601D08A869396A4B702D08A94FB
:102E900001D08A849394030E006E002EFED700D0DA
:102EA000939C8A8C070E006E002EFED700D0939C58
:102EB0008A9C000C939E8A9EEF0E006E002EFED719
:102EC00000D0A15303E0939E8A8E02D0939E8A9EE7
:102ED0000000939C8A9CA239A36F0F0EA317A3C076
:102EE000A4F0C1DFA2510F0BA36FA46FBCDF000CD5
:102EF000939E8A9E939C8A9C0F0E9E6F18DF876B11
:102F00008751020808E3030EA46FADDF050E9E6F24
:102F10000EDF872BF5D7020EA46FA5DF876B8751D5
:102F2000030812E3036A8751F2CF88F0F29E1EEC89
:102F30000DF088BFF28E886FA16BA26FBBDF050E0C
:102F40009E6FF5DE872BEBD7CCEF1CF0C150C00B8A
:102F50000D09C16EC080C082C084C09EC280E9EFEE
:102F60001CF09E2D01D003D0400E9F6F01D09F6BAF
:102F7000010E9D5D9F279F518009A06FA16BA26FDD
:102F800099DF000C9C510C0A05E0010A0BE0050AD0
:102F90000FE013D0A16B010EA26F8CDF020E9E6FAB
:102FA000C6DE11D0010E9D6F020E9E6FDADF0BD0D0
:102FB000A16B100EA26F7EDF06D0010EA16F9CC028
:102FC000A2F078DF00D0000C0900F5520CE0F6CF3B
:102FD0008FF0F7CF90F0F5CF9CF0D4DF8FC0F6FFE5
:102FE00090C0F7FFF1D7000C006A016A026A036A19
:102FF000A96BAA6BAB6BAC6BA851A711A611A5115D
:103000002CE0200EAD6FD890A137A237A337A4379C
:10301000A937AA37AB37AC37A851AC5D08E1A75147
:10302000AB5D05E1A651AA5D02E1A551A95D0FE3E3
:10303000A551A95FA651D8A0A63DAA5FA751D8A0C7
:10304000A73DAB5FA851D8A0A83DAC5FD8800036A3
:10305000013602360336AD2FD6D7EA6AA90EE96EDD
:10306000000C016A026A006A036A9C5102E19B51EA
:1030700018E0100E9D6FD89099379A3700360336B6
:103080009C51035C02E19B51005C07E39B51005E95
:10309000D8A003069C51035ED880013602369D2FCE
:1030A000EAD7000CA56BA66B010EA76FDA6AD96A86
:1030B000AA6B9D0EA96FEA6AA10EE96EAAC0E2FF93
:1030C000A9C0E1FFA7C0A8F0D890E550EE02F350E8
:1030D000A523F450A623A82FF7D7A5C0DEFFA6C0CE
:1030E000A5F0A66BD8B0A62BA92BD8B4AA2BA72BDA
:1030F000A7510508E0E130EF19F0010E9E5F0CE3E7
:10310000EA6A9E0EE96EEF5007E0020E006E002E96
:10311000FED700D0EF2EF9D7000C9D6B9A519D5D24
:1031200005E2FA0E9E6F03DE9D2BF8D799C09EF044
:10313000FEDD9D6B9C519D5D05E2FA0E9E6FDDDF0D
:103140009D2BF8D79BC09EF0D8DF000CA46B0F0E10
:10315000A36F420EA26F400EA16FA86BA76B88C031
:10316000A6F087C0A5F040DF03C09CF002C09BF032
:1031700001C09AF000C099F0D8909C339B339A33E9
:1031800099330A0E995D8B6F000E9A598C6F000E61
:103190009B598D6F000E9C598E6F8EC0A4F08DC010
:1031A000A3F08CC0A2F08BC0A1F0A86BA76B030E9C
:1031B000A66FE80EA56F18DF01C090F000C08FF079
:1031C00090C09AF08FC099F09C6BFA0E9B6F49DF0C
:1031D00001C094F090C09AF08FC099F09C6BFA0EE9
:1031E0009B6F3FDF00C095F08EC0A4F08DC0A3F0B0
:1031F0008CC0A2F08BC0A1F0A86BA76B030EA66FCA
:10320000E80EA56FF1DEEFCF91F0ECCF92F092C017
:103210009AF091C099F09C6BFA0E9B6F22DF01C06F
:1032200093F092C09AF091C099F09C6BFA0E9B6F4C
:1032300018DF00C096F09C6B9B6B8AC09AF089C027
:1032400099F09CC0A0F09BC09FF08AC09EF089C0FE
:103250009DF0A46BA36B030EA26FE80EA16F22D7A3
:1032600003C09CF002C09BF001C09AF000C099F02E
:10327000A46B0F0EA36F420EA26F400EA16FA86B3E
:10328000A76B88C0A6F087C0A5F0AEDE03C0A0F093
:1032900002C09FF001C09EF000C09DF09CC0A4F051
:1032A0009BC0A3F09AC0A2F099C0A1F003C0A8F0FF
:1032B00002C0A7F001C0A6F000C0A5F095DE01C0D5
:1032C00098F000C097F098C003F09751D8B49807D1
:1032D0009707996F03C09AF0995302E19A5317E048
:1032E00095C099F094C09AF096C09BF093C09CF062
:1032F00014DF93908A8095C099F094C09AF096C09C
:103300009BF093C09CF009DF93908A90DCD7000C6F
:103310000900F6CF88F0F7CF89F0F5CF9CF032DEC8
:1033200088C0F6FF89C0F7FF872FF2D7CFEF1DF0D7
:103330008A51016A895D03E289C000F00CD0006AFD
:10334000080E8B6F893700368A51005CD8B0006E4A
:1033500001368B2FF7D7000C015087C089F0640E1F
:103360008A6FE6DF00C087F00150300E07E188A3C6
:103370000CD088B70AD088B9200E03D088978899D6
:103380008881012601C09CF0FDDD87C089F00A0E0E
:103390008A6FCEDF00C087F00150300E06E188B79B
:1033A00008D088A106D088B9200E012601C09CF063
:1033B000E9DD300E872787C09CF0E4DDD5EF1DF0F6
:1033C0008E0E006E90C001F08FC002F0036A0152B1
:1033D00009E102C001F0026A080E005E015202E13A
:1033E000006A08D0D89001BE04D00236013600062B
:1033F000F9D7019E000C9C51D8B471D0006EA05139
:10340000D8B46DD0002604E3810E002668E204D013
:103410007F0E005E64E363E09DC0A4F0A151A41B95
:103420009D8FA18F9F51A303F4CFA6F09E51A203BD
:10343000F4CF03F0F3CFA5F0A303F350A627F45085
:10344000A523000E03229F51A203F350A627F45098
:10345000A523000E026A032202229D51A303F3500A
:10346000A527F4500322000E02229D51A203F3501F
:103470000326F4500222000E016A01229F51A1038B
:10348000F350A527F4500322000E022201229E5180
:10349000A103F3500326F4500222000E01229D5195
:1034A000A103F3500226F4500122002A01BE05D0E8
:1034B000A5370336023601360006000EA5AF0AD046
:1034C000032A02220122015005E1025003E10350C8
:1034D00001E1002AA4BF018EA4AF019E04D0006ABE
:1034E000016A026A036AA9EF1AF09C51B6089C6F40
:1034F000036A9DC0A0F09D8FD8909D339E339F336B
:1035000003320232013200329C2FF6D7A0AF0BD02B
:10351000001E011E021E031E002AD8B4012AD8B4C0
:10352000022AD8B4032ABCEF1AF0E950946F9351E1
:10353000966F19E092C09FF091C09EF090C09DF0F0
:103540008FC09CF0A36BA26B200EA16F820EA06FA8
:1035500052D703C092F002C091F001C090F000C0B9
:103560008FF0962FE7D792C09FF091C09EF090C049
:103570009DF08FC09CF0B9D703C092F002C091F0CB
:1035800001C090F000C08FF092AF0DD09407948BE3
:103590008F1F901F911F921F8F2BD8B4902BD8B4E0
:1035A000912BD8B4922B3B0E9B6F9A0E9A6FCA0E3A
:1035B000996F986B0A0E966F9351D8B4942B92C062
:1035C000A4F091C0A3F090C0A2F08FC0A1F09BC066
:1035D000A8F09AC0A7F099C0A6F098C0A5F004DDA5
:1035E0000150EFCF8FF0ECCF90F0ECCF91F0ECCF1B
:1035F00092F000520FE19329965D0CE094510CE09B
:103600000F0B965D01E037E294BF35D094BD04D036
:10361000200E2DD0200E941794AB0CD0949B935178
:10362000D8A494070050946F2D0E9C6FABDC94517E
:10363000006E946B9351965D0AE10050946F2E0ECC
:103640009C6FA0DC9451006E200E9417000E300E7B
:1036500094AB0DD0949B9351D8A494070050946FD1
:103660002D0E9C6F8FDC9451006E946B300E0026F3
:1036700000C09CF087DC9BC0A4F09AC0A3F099C066
:10368000A2F098C0A1F0A86BA76BA66B0A0EA56F5D
:10369000ABDC03C09BF002C09AF001C099F000C0FF
:1036A00098F0962F8CD7000C8C9C959C8C8E959EB8
:1036B0008C9895988C8A959A000C8A6B896B886B8C
:1036C000876B8E6B8D6B8C6B8B6B220EF66E2C0E5C
:1036D000F76E7ADC040E8F6FFA0E9E6F97EC16F081
:1036E0008F2FFAD7010E8F6F8F35006E0036FC0ECC
:1036F0000016C250C30B0010C26EC282C2B2FED707
:10370000C4CF8FF08FC001F0906B01C08FF058DEF6
:1037100003C08AF002C089F001C088F000C087F0C1
:10372000020E8F6F8F35006E0036FC0E0016C250F1
:10373000C30B0010C26EC282C2B2FED7C4CF8FF0DC
:103740008FC001F0906B01C08FF03ADE03C08EF0A5
:1037500002C08DF001C08CF000C08BF0440E9C6F55
:1037600011DC2D0E9C6F0EDC890EE96E8EC092F07E
:103770008DC091F08CC090F08BC08FF0020E936FD3
:10378000D4DE010E9D6F020E9E6FB1EC17F0490E54
:103790009C6FC2EC17F02D0E9C6FC2EC17F0890ED7
:1037A000E96E8AC092F089C091F088C090F087C01D
:1037B0008FF0020E936FB9DE77DF010E8F6F8F35BA
:1037C000006E0036FC0E0016C250C30B0010C26E15
:1037D000C282C2B2FED7C4CF8FF08FC001F00150B9
:1037E000800803E296908D800AD0140E8F6FFA0E37
:1037F0009E6F97EC16F08F2FFAD796908D900BEF67
:103800001EF08C9C959C8C9E959E8C9895988C9A7D
:10381000959A000C8C8C959C8C9E959E8C88959886
:103820008C9A959A000C010E9D6F020E9E6FB1EC62
:1038300017F0320EF66E2C0EF76EE4EC17F0928451
:1038400080B402D0DEDFFBD7E5DF020E876FFA0E11
:103850009E6F97EC16F0872FFAD7D3DF10EF1EF08C
:103860008C9C959C8C8E959E8C8895988C9A959A1C
:1038700070EF1CF08C8C959C8C9E959E8C989598E6
:103880008C8A959A82EF1CF0928680B64DD0928AEF
:1038900080BA4AD0B6DFBEDF030E886F100E876F86
:1038A000030E8A6FE80E896F51DC030E886F100ECD
:1038B000876F030E8A6FE80E896F48DC030E886FEE
:1038C000100E876F030E8A6FE80E896F3FDC0C0EB7
:1038D000876FFA0E9E6F97EC16F0872FFAD7C0D736
:1038E0000C0E876FFA0E9E6F97EC16F0872FFAD7A3
:1038F000DBDE0C0E876FFA0E9E6F97EC16F0872FAB
:10390000FAD7B8D70C0E876FFA0E9E6F97EC16F0A9
:10391000872FFAD7C9DE0C0E876FFA0E9E6F97ECD1
:1039200016F0872FFAD709D0BFDE0C0E876FFA0E7C
:103930009E6F97EC16F0872FFAD715EF1EF0F86AF6
:10394000D09E078EEA6AE96A1F6A236A796B7E6BEA
:10395000B886E10EAF6E040EB06EA60EAC6E900E81
:10396000AB6E7F6B836B826B846BC150C00B0F0996
:10397000C16E070EB46E1B6A040E1C6E0E0E1D6E19
:103980005A0E806F816F856BABEF16F0C6EC0DF0B1
:103990002CEF17F078EF17F0C80E9E6F97EC16F02B
:1039A000F288F18CD190830ED56ECD6A000ECA6E6E
:1039B000000ECB6E070EB46E9250926E270E006E04
:1039C000002EFED700D0B450A19CB56AF28AA6EFB3
:1039D00017F0010E9D6F9E6FB1EC17F0400EF66E62
:1039E0002C0EF76EE4EC17F0020E876FFA0E9E6F46
:1039F00097EC16F0872FFAD7D76AD66A856B928034
:103A000080A011D0010E9D6F9E6FB1EC17F04C0E8F
:103A1000F66E2C0EF76EE4EC17F0010E9D6F9E6FA4
:103A2000B1EC17F0ECD70A0E886F4D0E876F010EC0
:103A30008A6FF40E896FA6EC18F0020E876FFA0EEB
:103A40009E6F97EC16F0872FFAD786510508D8B4E9
:103A500021D11BEC17F0D76AD66A856B866B85532C
:103A6000D8A4FFD0928080B009D0862B020E876F39
:103A7000FA0E9E6F97EC16F0872FFAD7865318E14F
:103A8000010E9D6F9E6FB1EC17F05C0EF66E2C0E62
:103A9000F76EE4EC17F0010E9D6F020E9E6FB1EC15
:103AA00017F06A0EF66E2C0EF76EE4EC17F06AD083
:103AB000862D18D0010E9D6F9E6FB1EC17F07A0E17
:103AC000F66E2C0EF76EE4EC17F0010E9D6F020EF1
:103AD0009E6FB1EC17F0820EF66E2C0EF76EE4ECD2
:103AE00017F050D08651020818E1010E9D6F9E6FAD
:103AF000B1EC17F08A0EF66E2C0EF76EE4EC17F0B0
:103B0000010E9D6F020E9E6FB1EC17F0920EF66ED5
:103B10002C0EF76EE4EC17F035D08651030818E14F
:103B2000010E9D6F9E6FB1EC17F09A0EF66E2C0E83
:103B3000F76EE4EC17F0010E9D6F020E9E6FB1EC74
:103B400017F0A20EF66E2C0EF76EE4EC17F01AD0FA
:103B50008651040817E1010E9D6F9E6FB1EC17F0BE
:103B6000AC0EF66E2C0EF76EE4EC17F0010E9D6FA6
:103B7000020E9E6FB1EC17F0B40EF66E2C0EF76EBF
:103B8000E4EC17F0010E9D6F9E6FB1EC17F0BC0EC8
:103B9000F66E2C0EF76E0D0E876F88EF19F086C04B
:103BA00087F01B0E886FACEF19F0200E9C6FC2ECF3
:103BB00017F0010E9D6F9E6FB1EC17F0080E876F26
:103BC000FA0E9E6F97EC16F0872FFAD7865320E1F6
:103BD000010E9D6F9E6FB1EC17F0CE0EF66E2C0E9F
:103BE000F76EE4EC17F0010E9D6F020E9E6FB1ECC4
:103BF00017F0D80EF66E2C0EF76EE4EC17F0080EE8
:103C0000876FFA0E9E6F97EC16F0872FFAD728D0A1
:103C1000862D02D052D524D08651020802E103D667
:103C20001FD08651030802E12FD61AD0865104080E
:103C300017E1010E9D6F9E6FB1EC17F0E60EF66E68
:103C40002C0EF76EE4EC17F0010E9D6F020E9E6FC6
:103C5000B1EC17F0EE0EF66E2C0EF76EE4EC17F0EA
:103C6000FED6010E9D6F9E6FB1EC17F0F40EF66E4E
:103C70002C0EF76EE4EC17F0010E9D6F020E9E6F96
:103C8000B1EC17F0FE0EF66E2C0EF76EE4EC17F0AA
:063C900001D0DBD60300A9
:020000040030CA
:0E00000020C23E1E008781000FC00FE00F409F
:00000001FF
;PIC18F4550
;CRC=ED6B  CREATED="29-may.-13 22:13"
